:020000040800F2
:10000000506B0020310300082F460008A53D000872
:100010002D460008F50900085B53000800000000A9
:100020000000000000000000000000005102000875
:10003000F50E000800000000AD0200084549000868
:100040004B0300084B0300084B0300084B03000858
:100050004B0300084B0300084B0300084B03000848
:100060004B0300084B0300084B030008FD0D00087C
:10007000090E00084B030008150E00084B0300088A
:10008000210E00082D0E00084B030008190B000874
:10009000F50A0008010B00080D0B00084B030008CF
:1000A0004B030008154A00084B0300084B030008E7
:1000B0004B0300084B0300084B0300084B030008E8
:1000C0004B0300084B0300084B0300084B030008D8
:1000D0004B030008155200082D5200084552000835
:1000E0004B0300084B0300084B0300084B030008B8
:1000F0004B0300084B0300084B030008390E0008AF
:100100004B0300084B0300084B0300084B03000897
:100110004B030008C14D00084B0300084B030008C7
:100120004B0300084B030008450E00084B03000872
:100130004B0300084B0300084B0300083D0C00086C
:10014000190C0008250C0008310C00084B030008AE
:100150004B0300084B0300084B0300085D520008E6
:100160004B0300084B0300084B0300084B03000837
:100170004B0300084B0300084B030008000000007D
:100180004B0300084B03000800F002F800F050F8A1
:100190000AA090E8000C82448344AAF10107DA45E2
:1001A00001D100F045F8AFF2090EBAE80F0013F0E4
:1001B000010F18BFFB1A43F0010318479CB9000058
:1001C000BCB900000A4410F8014B14F00F0508BF39
:1001D00010F8015B240908BF10F8014B6D1E05D013
:1001E00010F8013B6D1E01F8013BF9D1641E03D0EC
:1001F000641E01F8015BFBD19142E4D3704700001B
:100200000023002400250026103A28BF78C1FBD81F
:10021000520728BF30C148BF0B6070471FB50BF0B5
:1002200042F99DE8030000F04FFA1FBD10B510BD64
:1002300000F0A6FA1146FFF7F1FF07F01DF800F0F5
:10024000C4FA03B4FFF7F2FF03BC00F0F5FA0000B4
:100250002C4B19680868B0E8F04F80F30988BFF3A9
:100260006F8F4FF0000080F311887047000000008E
:1002700008480068006880F308884FF0000080F3A9
:10028000148862B661B6BFF34F8FBFF36F8F00DF84
:1002900000BF00BF08ED00E0DFF80C00016841F48A
:1002A00070010160704700BF88ED00E0EFF3098046
:1002B000BFF36F8F134B1A681EF0100F08BF20EDAD
:1002C000108A20E9F04F106009B44FF0500080F31D
:1002D0001188BFF34F8FBFF36F8F09F053FF4FF0BB
:1002E000000080F3118809BC19680868B0E8F04F75
:1002F0001EF0100F08BFB0EC108A80F30988BFF31E
:100300006F8F704754000020EFF3058070470000A6
:1003100040BA704740BA704740BA704740BA704719
:1003200040BA704740BA704740BA704740BA704709
:100330000948804709480047FEE7FEE7FEE7FEE779
:10034000FEE7FEE7FEE7FEE7FEE7FEE704480549B5
:10035000054A064B70470000054A0008890100085D
:1003600050650020506B002050670020506700202F
:1003700070B5064600F08CF9056806F10B0020F018
:100380000704B4429CBF002070BD2B466A68BAB116
:100390001068A04210D304F1080188423CBF5068A5
:1003A000586007D35168101941601168091B01603A
:1003B00058601460101D70BD13465268002AE7D1C2
:1003C0002146284600F06CF90028DED170BD70B5DA
:1003D0000446051F00F05CF90068002C14BF446857
:1003E00070BD002C18BFAC423CBF20466468F8D3F7
:1003F00001680A18AA4218BF456003D12A68054659
:100400001144016028684119A1421CBF6C6070BD95
:100410006168696021680844286070BD53EA020C75
:1004200000F069802DE9F04B4FF00006002B1FBF54
:10043000B3FA83F503FA05F424FA05F65E4012BF19
:100440001643B2FA82F502FA05F4C5F120051EBF83
:1004500022FA05FC44EA0C04203556EA044C4FEA23
:10046000144418BF641C4FF000084FF0000990427C
:1004700071EB030C39D3002919BFB1FA81F701FAE6
:1004800007F6B0FA80F700FA07F6C7F120071EBF9B
:1004900020FA07FC46EA0C062037B6FBF4FCA7EB73
:1004A0000507103F07F01F0BCBF120060CFA0BFBE2
:1004B0002CFA06F644BFB3460026202FA4BF5E46A2
:1004C0004FF0000B5BEA060C08BF4FF0010B19EB75
:1004D0000B09ABFB027C48EB0608C01B06FB02CCF9
:1004E0000BFB03CC71EB0C01C1E70B460246414606
:1004F0004846BDE8F08B13B54FF000004FF0000107
:10050000AFF30080BDE81C407047032A40F2308002
:1005100010F0030C00F0158011F8013BBCF1020F44
:10052000624498BF11F801CB00F8013B38BF11F8C5
:10053000013BA2F1040298BF00F801CB38BF00F8DC
:10054000013B11F0030300F02580083AC0F0088059
:1005500051F8043B083A51F804CBA0E80810F5E73D
:10056000121D5CBF51F8043B40F8043BAFF3008020
:10057000D20724BF11F8013B11F801CB48BF11F895
:10058000012B24BF00F8013B00F801CB48BF00F865
:10059000012B704710B5203AC0F00B80B1E818501D
:1005A000203AA0E81850B1E81850A0E81850BFF45D
:1005B000F5AF5FEA027C24BFB1E81850A0E81850FC
:1005C00044BF18C918C0BDE810405FEA827C24BF50
:1005D00051F8043B40F8043B08BF7047D20728BFDE
:1005E00031F8023B48BF11F8012B28BF20F8023B2D
:1005F00048BF00F8012B70474FF000020429C0F0FB
:10060000128010F0030C00F01B80CCF1040CBCF144
:10061000020F18BF00F8012BA8BF20F8022BA1EB96
:100620000C0100F00DB85FEAC17C24BF00F8012B7B
:1006300000F8012B48BF00F8012B70474FF0000273
:1006400000B5134694469646203922BFA0E80C50C8
:10065000A0E80C50B1F12001BFF4F7AF090728BFA3
:10066000A0E80C5048BF0CC05DF804EB890028BF1F
:1006700040F8042B08BF704748BF20F8022B11F048
:10068000804F18BF00F8012B7047704770477047C4
:1006900000487047F8640020704770477047704703
:1006A00038B504460A4600206946AFF300800028AA
:1006B00008BF38BD02460099204600F03FF80120EF
:1006C00038BD012000F054B8F8B5AFF300800546FE
:1006D00000200C46102000BF0646A819A0420DD9E4
:1006E000324669460020AFF30080070008BF00F0E3
:1006F0003FF80098A04218BF0546C419FFF7C8FF8D
:1007000005600746F01D20F007004619284600F056
:100710000AF8B44208BFF8BDA21B31463868BDE8EC
:10072000F84000F00BB800210160C0E901107047EB
:100730001020704700487047F0640020034640686E
:100740008C46002818BF88423CBF03464068F8D357
:1007500018681844884207D00CF1030020F0070005
:10076000001D411A521A0146081D0A60FFF72FBEEC
:1007700010B500F039F8BDE8104000F02FB8704710
:100780007546FFF7D7FFAE4605006946534620F091
:100790000700854618B020B5FFF7D8FDBDE820401A
:1007A0004FF000064FF000074FF000084FF0000B2D
:1007B00021F00701AC46ACE8C009ACE8C009ACE8E0
:1007C000C009ACE8C0098D46704710B50446AFF3C8
:1007D00000802046BDE81040FFF733BD002801D05F
:1007E00000F02AB87047000010B5012805D000219C
:1007F00003A000F027F8012010BD09A1F8E70000D0
:1008000053494752544D454D3A204F7574206F66F9
:100810002068656170206D656D6F72790000000061
:100820003A2048656170206D656D6F727920636F45
:10083000727275707465640001491820ABBEFEE7E2
:100840002600020070B505460C460A2000E06D1C2B
:1008500000F011F835B128780028F8D102E0641CC6
:1008600000F009F814B120780028F8D1BDE87040F4
:100870000A20AFF3008008B569468DF80000032018
:10088000ABBE08BD464910B54A6822F440324A6002
:100890004A6843681A434A6001684A6822F48072D1
:1008A0004A6001684A68036942EA03224A600168B3
:1008B0004A6822F040724A6001684A6883681A43B5
:1008C0004A6001688A6822F400628A6001688A6866
:1008D000C3681A438A60816A6FF07062D14201680E
:1008E0008A6822F070628A6001688A680CD0836A24
:1008F0001A438A6001688A6822F040528A6001685F
:100900008A68C36A1A4301E022F040528A60016893
:100910008A6822F002028A6001688A68037E42EADD
:1009200043028A6090F82010002901684A680FD0BD
:1009300042F400624A6001684A6822F460424A60F8
:1009400001684A68174C436A04EB43331A4301E0D9
:1009500022F400624A600168CA6A22F47002CA6224
:100960000168CA6A838B104C04EB03531A43CA62B2
:1009700001688A6822F400728A6001688A6890F8C7
:10098000303042EA43228A6001688A6822F4806239
:100990008A6001688A68406942EA8020886010BDE8
:1009A0000023014000E0FFFF0000F0FF30B50C46DF
:1009B00005000CD0022C0AD90548A11E0288284641
:1009C00000F09CFA291901F8020D000A487030BDA8
:1009D000F401002030B50C4605000AD0022C08D9DD
:1009E000601E81B2FF22284600F09EFA291901F804
:1009F000010C30BDFEE700001E4AA0F201200628CF
:100A000036D2DFE800F00308101A232C907C32283D
:100A1000184806D90FE0174892F82A201830322AD1
:100A200009D806F02FBB13486030807C322811486B
:100A300000F16000F5D906F0A1BA0E483030807C94
:100A400032280C4800F13000EBD9F4E70948903027
:100A5000807C3228074800F19000E2D9EBE7054896
:100A6000F030807C3228034800F1F000D9D9E2E769
:100A700070470000644C002092084A6100220A611D
:100A800001220A6201F012B82DE9F04117460D4625
:100A90008046002440F6FF7626E000BF14F00301F4
:100AA00006D0012907D0022908D0032910D108E077
:100AB000400128600CE04001686009E04001A86046
:100AC00006E04001E860224629464046FFF7D4FF91
:100AD00007EB84004068B04204D1224629464046D4
:100AE000FFF7CAFF641CE4B257F82400B042D5D126
:100AF000BDE8F081014801F0D4B80000E80800200A
:100B0000014801F0CEB80000E8080020014801F0DB
:100B1000C8B80000E8080020014801F0C2B8000091
:100B2000E8080020A0F20120062831D2DFE800F01A
:100B30000309121720271748807C3228154815D939
:100B40001BE014481838807C32281248A0F11800A5
:100B50000CD912E00F48783890F82A2003E00D48AD
:100B6000A83890F82A201830322A06D806F08ABA17
:100B70000848483890F82A20F5E706F0FFB90548FC
:100B80003030807C3228034800F13000F5D8EDE7A2
:100B9000704700003C4D00200E2303EB92024A6197
:100BA00001220A610A6200F081BF00002DE9F041D4
:100BB00017460D468046002440F6FF7626E000BF2B
:100BC00014F0030106D0012907D0022908D0032917
:100BD00010D108E0400128600CE04001686009E0A5
:100BE0004001A86006E04001E860224629464046F0
:100BF000FFF7D2FF07EB84004068B04204D12246E1
:100C000029464046FFF7C8FF641CE4B257F82400A9
:100C1000B042D5D1BDE8F081014801F042B80000F2
:100C200010090020014801F03CB800001009002024
:100C3000014801F036B8000010090020014801F019
:100C400030B800001009002000B58BB001220692D8
:100C5000002207920E220992084B02689A4205D19F
:100C60000A466946FFF710FF0BB000BD044B9A42DD
:100C7000FAD10A466946FFF799FFF5E7006400409C
:100C8000006800403EB509F0ABF811480022016849
:100C9000684606F007FCDDE90002102814D10D4C6F
:100CA000207810B101280FD106E04FF400710A48F6
:100CB00000F090F8012006E040F2FF1106480832EB
:100CC00000F088F800202070BDE83E4009F0A8B888
:100CD0003400002070010020E80800203EB509F033
:100CE0007FF8114800220168684606F0DBFBDDE969
:100CF0000002102814D10D4C607810B101280FD1DA
:100D000006E04FF400710A4800F064F8012006E0A4
:100D100040F2FF110648083200F05CF800206070D5
:100D2000BDE83E4009F07CB838000020700100208A
:100D30001009002000B58FB01C220B496846FFF750
:100D400029FC09491C221C3107A8FFF723FC074A8C
:100D50006946074800F012F8064A07A9064800F05D
:100D60000DF80FB000BD000078B60008F9090008C2
:100D7000E8080020250B00081009002070B5154672
:100D80000446FFF761FF204601F002FA0E49206891
:100D90000E4E88420AD10221204600F011FE206842
:100DA000416941F002014161356070BD08498842E6
:100DB000FBD11021204600F003FE2068416941F07C
:100DC00010014161756070BD00640040D0000020DA
:100DD0000068004010B588B068B100230091082475
:100DE00006930293CDE9033406AB694600F0FAFDA1
:100DF000002008B010BD0120FBE70000014801F011
:100E000055BA0000640B0020014801F04FBA000001
:100E1000440D0020014801F049BA0000A40D002053
:100E2000014801F043BA0000840C0020014801F0A1
:100E30003DBA0000E40C0020014801F037BA000080
:100E4000C40B0020014801F031BA0000240C00203E
:100E500001681823CAB2103AB2FBF3F2054B6FF3E4
:100E60000901032A9B5CC36500D9091D81650846F9
:100E70007047000058B6000810B5014600208B6985
:100E80008A6A4FF0C07453B1B3F5005F15D072B1E8
:100E9000012A0CD0022A0AD0032A09D104E01AB18F
:100EA000012A06D0022A03D1C96AC90100D501204E
:100EB00010BDC96AA142FAD010BD002AF7D0012A9C
:100EC000F2D0022AF3D0032AF3D010BD30B5046863
:100ED000256825F480252560046863608368402BBD
:100EE000036803D099600068C26030BD9A600068F2
:100EF000C16030BD704772B6FEE7000010B558B152
:100F0000084C491E0BD310F8013B5340DBB234F8B8
:100F1000133083EA1222F4E74FF6FF7010BD10463B
:100F200010BD0000AEB8000810B5064C04E000BFCC
:100F300010F8013B5340E25C491E89B2F8D21046DA
:100F400010BD0000AEB700082DE9F05FF54C2DEDA7
:100F5000028B94F802C09FEDF43AF748F54EF74B38
:100F600090ED092AD0ED073AF04D32EE430A72783F
:100F7000DFF8BCA393ED021AF0EEC01A90ED0A0A56
:100F8000D3ED030AD5ED062A30EE630ADFF8B0B3DD
:100F90000027EC48BAEE0E8AF1EE048A22F0010135
:100FA0004FF0010804F10609B0EEC00ABCF1080FC9
:100FB00071D2DFE80CF004747DADE1FDFCFBDE4A8C
:100FC00021F0080141F0060182F80180A7617170EB
:100FD00011EE901A89F8007082ED063A81425ADAD1
:100FE00010EE101A814256DA9FEDD70AD34FD74937
:100FF000D74A87ED010A81ED018AD1ED021A71EE1F
:10100000C81AF0EEE11A11EE903A934243DAD1EDAC
:10101000031A71EE881AF0EEE11A11EE901A91425D
:1010200039DA31EE401AB0EEC11A11EE101A8142CF
:1010300031DA30EE800AB0EEC00A10EE101A8142AA
:1010400029DA9FEDC40A85ED010A32EE800AB0EE7E
:10105000C00A10EE100A50451DDA9FEDBF0ABF48C6
:1010600080ED010AD0ED020A30EEC00AB0EEC00AEF
:1010700010EE100A90420EDA102006F0C1F9002896
:1010800009D0707820F0060040F009007070C7EDBC
:10109000018A84F80280BDEC028BBDE8F09F89F8DC
:1010A00000800C2006F0ACF90028F4D0022029E0E2
:1010B000DFEDAB0AA049C1ED060A72EE600AF0EE60
:1010C000E00A10EE901A8142E5DA10EE101A814221
:1010D000E1DA9FEDA40AA44985ED010A81F80180B7
:1010E00005F032F995ED060AD5ED010A30EE200A39
:1010F000B0EEC00A10EE100A5045CCDA99F80100A3
:1011000010B10320A070C6E70420A070A761C2E759
:1011100089F80080DFED951A8749C1ED061A72EE55
:10112000611AB0EEE12A12EE102A8242B3DA10EE12
:10113000102A8242AFDADFED8E1A804A31EE611A50
:10114000C2ED011AB0EEC11A11EE102A8242A2DAE3
:1011500070EEA10AF0EEE00A10EE902A82429ADACE
:1011600002224A7012EE101A814294DA10EE101A1E
:10117000814290DA0820C5E79FED7E2A6F4931EE63
:10118000421A81ED012AB0EEC11A11EE101A814205
:1011900081DA70EE820AF0EEE00A10EE901A8142D7
:1011A000B1DADFED750AC5ED010A02E07FE057E034
:1011B00037E072EEA00AF0EEE00A10EE901A514508
:1011C000A1DA5D4981ED063A11EE901A81429ADA70
:1011D00010EE101A814296DA68489BF81510F0EE6E
:1011E000000A90ED020A0A0702D530EE200A03E059
:1011F000890603D530EE600A80ED020A102006F061
:10120000FFF800283FF47FAF89F8007070785649E6
:1012100020F0090040F00600707081F80180052080
:1012200070E79BF81400800601D50620A0700C2002
:1012300006F0E6F868B185ED018A95ED060A30EE14
:10124000080AB0EEC00A10EE100A504501DA082074
:10125000A070082006F0D4F80028D3D0A7701AE7B1
:101260009FED470A354931EE401A81ED010AB0EE93
:10127000C11A11EE101A814214DA30EE800AB0EE73
:10128000C00A10EE101A81420CDA2B489FED3D0A7D
:1012900080ED060A22F0060040F009007070E06957
:1012A000401CE061E069FA28D9DD07202AE7224ADC
:1012B0009FED350AE76182ED060A31EE680A1F4AA2
:1012C000C2ED018AB0EEC00A10EE102A8242C6DAE0
:1012D00030EEA80AB0EEC00A10EE102A8242BEDA42
:1012E00021F0080040F0060070700C2006F088F82D
:1012F00068B185ED018A95ED060A30EE080AB0EE78
:10130000C00A10EE101A514501DA0820A07008201A
:1013100006F076F800B1A7709BF8140080069ED501
:101320000620EFE61401002000A08C45F4510020B7
:1013300000002041845200209C520020B451002023
:101340001054002000004842000048433C52002056
:101350000000A0410000EDC30000E6C228530020B9
:1013600000409C4500400FC41053002000007A4507
:101370000080BB44008009450000A0C3A4530020A6
:101380000000E1440080544500D09D452DE9F05F08
:10139000F44DDFF8D4B3B1EE043A2DED028B95F89D
:1013A00001C0DFEDF28AF34EDFF8C4E3D6ED093A6F
:1013B0009FEDF10AF14FD6ED0A0A33EEC00AD7EDE0
:1013C000021A97ED034AEE48F0EEC02A96ED070A9E
:1013D000EC4A417830EEC00A71EEC30A71EEE81AA9
:1013E000137D41F00100B0EEE01AB0EEE12A74EE98
:1013F000030A74EE281A527DE34CB0EEC00AF0EEF8
:10140000E00A21F00101F0EEE11A4FF0010ABAEE14
:101410000E8A4FF00009BCF1080F5CD2DFE80CF037
:10142000045F92FDFCFBFAF9524686F801A0DFED5D
:10143000D21A12EE901AC6ED061AA1424BDA10EE3D
:10144000101AA14247DAD149D14B81ED018A91EDC1
:10145000020A30EE480AB0EEC00A10EE106A9E4250
:1014600039DAD1ED031AB0EE480A31EE800AB0EE57
:10147000C00A10EE101A99422DDAC649C64E81ED07
:10148000018A91ED060A30EE080AB0EEC00A10EEAD
:10149000101AB1421FDA9FEDC10AC14981ED010A5C
:1014A000D1ED021A31EEC00AB0EEC00A10EE101AE9
:1014B000994210DA11EE101A87ED013AA1420ADAC8
:1014C00010EE901AA14206DAAD4920F0060040F075
:1014D000080048706A70BDEC028BBDE8F09F9FED7C
:1014E000B10AAA4880ED010A04F02EFFA548B0EE2B
:1014F000000A407D010704D5DBED020A30EE800AC8
:1015000005E0800605D5DBED020A30EEC00A8BED62
:10151000020A052005F074FF30B19948417821F0A6
:10152000090141F006014170102005F069FF002813
:10153000D1D08C48801D407810B107206870CAE770
:101540000220FBE7052005F05BFF08B185F801905C
:101550008E488F4980ED018A90ED020A30EE480AEC
:10156000B0EEC00A10EE102A8A42B4DA90ED030AF7
:1015700030EE080AB0EEC00A10EE100A8842AADA6D
:101580009FED890A8348844980ED010AD0ED060A5F
:1015900030EE800AB0EEC00A10EE100A88429ADAE5
:1015A000C7ED018A97ED020A30EE680AB0EEC00A74
:1015B00010EE100AA0428EDA97ED030A30EE280AE8
:1015C000B0EEC00A10EE100AA04284DA9FED770A4E
:1015D00086ED060AD6ED090A30EEC00AB0EEC00A62
:1015E00010EE100AA042AADA96ED0A0AD6ED070A12
:1015F00030EE600AB0EEC00A10EE100AA0429EDA89
:101600006048407D81069FED6A0A0AD5DBED020A3B
:1016100004E093E06BE04EE03DE018E030EEC00AFD
:1016200005E0000705D5DBED020A30EE800A8BED00
:10163000020A04F089FE102005F0E2FE00283FF4C3
:101640007EAF4849891D032081F800A076E7DFEDD1
:10165000590AC6ED060A73EEE00AF0EEE00A10EE53
:10166000900AA0428BDA10EE100AA04287DA2869AD
:10167000401C286132287FF762AF21F00800404A01
:10168000384940F006005070891D042081F8009010
:101690008EF801A052E7D00701D085F80190D0065E
:1016A00004D545498EF801A081F8009098067FF591
:1016B00046AF052042E712EE101AC7ED018AA1429B
:1016C00010DA11EE901AA1420CDA2D499FED3B0A77
:1016D00020F0060086ED060A40F0080048706869B0
:1016E000401C68616869FA28C5DD062026E7DFED41
:1016F000221AC5F81490C6ED061A12EE906A4846F2
:1017000087ED013AA642ADDA10EE106AA642A9DAD8
:1017100011EE106AA642A5DA10EE906AA642A1DA8E
:10172000174C21F0080141F006016170D10700D08B
:101730006870D106BAD520490870B7E7134809493F
:1017400080ED018A891D12EE100A81F800A0C7ED14
:10175000018AA04286DA11EE900AA04286DA0220BF
:101760007070B8E614010020A45300200000E1448A
:10177000105300209C52002000D09D45B451002001
:101780008452002010540020000048423C520020A7
:101790000000A041F4510020000020410000E6C2FA
:1017A0002853002000002FC40000A0C300409C4527
:1017B000CDCC4C3E00A08C4550010020008054450B
:1017C00078B50024009490F83C20012A19D0012219
:1017D00080F83C200A6807230568092A13D9EE68B7
:1017E0000A3A02EB420293409E43EE600B788A680D
:1017F0000A3B03EB43039A400368DD682A43DA603F
:1018000010E0022078BD2E6902EB420293409E4315
:101810002E610B788A6803EB43039A4003681D69C5
:101820002A431A614A681F23072A13D205686E6B80
:10183000521E02EB820293409E436E630B790A882C
:101840005B1E92B203EB83039A4003685D6B2A43ED
:101850005A6327E005680D2A12D22E6BD21F02EBC5
:10186000820293409E432E630B790A88DB1F92B25B
:1018700003EB83039A4003681D6B2A431A6311E04C
:10188000EE6A0D3A02EB820293409E43EE620B79C0
:101890000A880D3B92B203EB83039A400368DD6A2A
:1018A0002A43DA62164B0568144A9D4206D10D6838
:1018B000122D03D1556845F48005556005689D4299
:1018C00018D10B68102B01D0112B13D1536843F49E
:1018D00000035360096810290CD10A490A4A0968B3
:1018E000B1FBF2F101EB8101490000E0491E0091DA
:1018F0000029FBD180F83C40002078BD0023014046
:10190000002001405000002040420F0070B504004C
:101910004FF0000503D0206C002610B107E0012035
:1019200070BD204600F01CF8666484F83C60206CB2
:10193000C00610D4206C20F4885040F002002064CF
:101940002046FEF79FFF6664206C20F0020040F006
:101950000100206400E0012584F83C60284670BD49
:1019600010B586B0044614216846FEF767FE11499B
:10197000206888421CD110480021026842F480721D
:101980000260006800F4807005900B48143802680B
:1019900042F002020260006800F00200059002209E
:1019A00000900320CDE901016946044800F0F0FDF4
:1019B00006B010BD0020014044380240000402403F
:1019C00090F82020012A07D0022A05D0416A41F46C
:1019D0008021416201207047006842690A434261E8
:1019E00000207047F0B590F820500468A468012DDD
:1019F00005D0022D03D0416A41F4802153E014F058
:101A0000406F01D1E5004BD5C4F30164022C03D92A
:101A1000416A41F4000146E00125A5401D608D6842
:101A20004FF4C0739DB1CE6835434E6845EAC60594
:101A3000066803EB0417F5514FF4C275076805EB10
:101A400004150E697E51097D012905D009E00E8833
:101A5000CD6845EA4655EBE701684E5946F4807675
:101A60004E511179D2F805504FF4C67641EA05255A
:101A7000016806EB04168D511178D2F801204FF45D
:101A8000C47541EA0221026805EB04155151006852
:101A900003EB0411425842F0010242500020F0BD15
:101AA000416A41F4001141620120F0BD10B590F887
:101AB0002020012A07D0022A05D0416A41F4802162
:101AC0004162012010BD3B48D0F8002242F00102E3
:101AD000C0F80022D0F8002222F47C52C0F8002284
:101AE000D0F800224B6A42EA0322C0F800220A7DA5
:101AF00002F01F0301229A40D0F81C329343C0F831
:101B00001C32CB69B3B9D0F80C329343C0F80C3215
:101B10008C894B6864F31F434C6900EBC404C4F820
:101B200040320C890B6864F31F434C6900EBC4041A
:101B3000C4F84432CB69012B16D1D0F80C321343D0
:101B4000C0F80C320C884B6864F31F434C6900EBFF
:101B5000C404C4F840320C89CB6864F31F434C6959
:101B600000EBC404C4F844328B69002BD0F8043273
:101B70000ED01343C0F804320B69002BD0F8143296
:101B800008D01343C0F81432096A012904D008E0D0
:101B90009343EFE79343F5E7D0F81C121143C0F8E5
:101BA0001C12D0F8001221F00101C0F80012002030
:101BB00010BD000000640040704730B590F8204030
:101BC000012C05D0022C03D0416A41F480215DE054
:101BD0000468002955D02469A40754D04FF4D87460
:101BE000056804EB01142D5915F00405956005688E
:101BF0002D594ED0ED08556005682C5904F00204AB
:101C0000D4604FF4DA74056804EB01142D5905F023
:101C10000F05156105682D59C5F307259561056800
:101C20002C59240C54614FF4DC72046802EB01124D
:101C3000A4581C700468A458240A5C700468A45852
:101C4000240C9C700468A258120EDA704FF4DE72F5
:101C5000046802EB0112A4581C710468A458240AF9
:101C60005C710468A458240C9C710468A258120E7C
:101C7000DA71006881B1016941F020010161002041
:101C800030BDE468A8E7416A41F4001141620120D7
:101C900030BD6D0D1560AFE7C16841F02001C16036
:101CA000EDE72DE9F05F0546006800244669D0F8AD
:101CB00004908768D0F80CB0D0F810A0D0F8188045
:101CC000F10748D0F90714D001218160B80703D586
:101CD000284600F08AFA0CE0780702D54FF4006439
:101CE00007E0380702D54FF4805402E0284600F0A0
:101CF0007BFAF80516D529684FF480708860B8051E
:101D000003D5284600F073FA0CE0780502D544F4B8
:101D1000005407E0380502D544F4804402E0284628
:101D200000F064FAF80316D529684FF48030886013
:101D3000B80303D5284600F05CFA0CE0780302D51E
:101D400044F4004407E0380302D544F4803402E050
:101D5000284600F04DFA300707D55FEACB6004D57E
:101D60002968102044F40074C86070074FF0080719
:101D700007D55FEA0B7004D52868C760284600F0D5
:101D8000C9F9B00706D52868C068800702D0284680
:101D900000F0C2F9700607D55FEACA6004D5296869
:101DA000102044F480640861B00607D55FEA0A7029
:101DB00004D528680761284600F0CAF9F00606D560
:101DC00028680069800702D0284600F0C3F9B003F4
:101DD00008D55FEAC96005D5296810204860284603
:101DE00000F0D4F9F00307D55FEA097004D528683C
:101DF0004760284600F0FEF9300446D55FEA497096
:101E000040D5F00504D55FEAC87001D044F0010464
:101E1000B00504D55FEA887001D544F0020470056E
:101E200004D55FEA487001D544F00404300529D593
:101E300018F0700F26D008F07000402815D006DC8E
:101E4000102809D020280AD0302816D10AE05028BE
:101E50000ED0602811D10EE044F008040DE044F0EB
:101E600010040AE044F0200407E044F0400404E0D9
:101E700044F0800401E044F480742868816921F012
:101E800070018161296804204860002C05D0686ACF
:101E9000204368622846FFF78FFEBDE8F09F70B5CB
:101EA000040003D094F8200010B104E0012070BDBC
:101EB000204600F081F82068016841F001010160CE
:101EC00000F064FC0546052604E000F05FFC401BC2
:101ED0000A2811D820684068C007F6D02068016839
:101EE00021F00201016000F051FC05460BE000F01A
:101EF0004DFC401B0A2806D9606A40F4003060623D
:101F000084F82060D2E7206840688007EFD4207E04
:101F10000128206801683DD021F080010160607EC9
:101F200001282068016838D021F040010160A07EBE
:101F300001282068016833D021F020010160E07E93
:101F40000128206801682ED041F010010160207F37
:101F500001282068016829D021F008010160607F14
:101F600001282068016824D021F004010160D4E92F
:101F700002010843D4E90412114308436168491E71
:101F800008432168C86100206062012084F82000B5
:101F9000002070BD41F08001C0E741F04001C5E77D
:101FA00041F02001CAE721F01001CFE741F008011C
:101FB000D4E741F00401D9E7F0B587B00446142115
:101FC0006846FEF73BFB4E4B4E48DFF830E11968A0
:101FD000D4F800C04B4A03250226092710300024FC
:101FE000491CF4453AD11960012907D1016841F033
:101FF00000710160006800F000700590106840F00A
:10200000080010601068CDE9005600F00800CDE926
:10201000047069463C48CDE9024500F0B9FA002257
:102020000521132000F04AFC132000F039FC0022A7
:102030000521142000F042FC142000F031FC0022A5
:102040000521152000F03AFC152000F029FC0022A3
:102050000521162000F032FC16204BE0DFF8ACE042
:10206000F44549D1D0F800C04CF0806CC0F800C0F5
:10207000D0F800C001290CF0806CCDF814C01960B4
:1020800007D1016841F000710160006800F0007044
:102090000590106840F002001060106802AB00F07C
:1020A000020005904FF44050CDE9000683E8B000EF
:1020B0006946174800F06CFA002205213F2000F025
:1020C000FDFB3F2000F0ECFB00220521402000F04A
:1020D000F5FB402000F0E4FB00220521412000F048
:1020E000EDFB412000F0DCFB00220521422000F046
:1020F000E5FB422000F0D4FB07B0F0BD00640040D7
:102100004000002030380240000C024000680040CF
:10211000000402407047000010B50A4A016891426D
:102120000FD1094B00211C46A3F11C02FFF745FD0E
:102130000548064A1C38214600681268BDE8104070
:10214000104710BD00640040A04D0020D0000020CA
:102150007047000010B50A4A016891420FD1094B3F
:1021600001211C46A3F11C02FFF727FD0548064A82
:102170001C38214600685268BDE81040104710BD69
:1021800000680040A04D0020D000002070470000F3
:1021900070B5044690F82000012804D0606A40F42D
:1021A0000020606218E0022084F8200020680168A6
:1021B00021F00101016000F0E9FA05460EE000BFE0
:1021C00000F0E4FA401B0A2808D9606A40F40030A5
:1021D0006062052084F82000012070BD20684068FE
:1021E000C007EDD1606270BD70477047704770479F
:1021F0007047704770472DE9F0410446876D00F045
:10220000C5FA064694F835000025022806D080203D
:10221000606584F834500120BDE8F08120680168D1
:1022200021F0160101602068416921F080014161BF
:10223000206C08B9A06C20B12068016821F0080169
:1022400001602068016821F0010101600CE000F0EC
:102250009DFA801B052807D920206065032084F89B
:10226000350084F83450D7E720680068C007EED105
:1022700094F85C103F208840B860012084F8350055
:1022800084F834500020C7E790F83510022903D0B5
:102290008021416501207047052180F835100068D4
:1022A000016821F001010160002070472DE9F84329
:1022B00004464FF00009CDF8009063484FF41651E2
:1022C000A56D0068B0FBF1F72E6894F85C1008204B
:1022D00000FA01F131420FD021680A6852070BD58C
:1022E0000A6822F004020A6094F85C108840A86032
:1022F000606D40F00100606594F85C104FF00108DB
:1023000008FA01F0304208D021684969090604D56D
:10231000A860606D40F00200606594F85C100420D5
:102320008840304208D021680968890704D5A86030
:10233000606D40F00400606594F85C1010208840E7
:10234000304218D021680968090714D5A8602068B0
:102350000168490304D50068000308D5A16C07E0B3
:102360000168C90503D4016821F008010160216CEE
:1023700009B12046884794F85C10202088403042FC
:1023800031D021680968C9062DD5A86094F83500B8
:1023900005282068016806D0490347D50068000376
:1023A0001DD4616C1CE021F01601016020684169B8
:1023B00021F080014161206C08B9A06C20B1206837
:1023C000016821F00801016094F85C103F2088400A
:1023D000A86084F8358084F83490216D1FE0E16BAB
:1023E00009B120468847606D00282BD0606DC0077A
:1023F00014D0052084F835002068016821F001011F
:1024000001600098401C0090B84203D82068006822
:10241000C007F6D184F8358084F83490E16C002947
:1024200010D001B02046BDE8F04308470168C90557
:10243000D5D4016821F01001016084F8358084F85A
:102440003490CCE7BDE8F883500000202DE9F0413E
:10245000044600F09BF906465CB1022084F8350082
:10246000002584F834502068016821F001010160E2
:102470000DE00120BDE8F08100F088F9801B0528FF
:1024800005D920206065032084F83500F2E7206834
:102490000068C007F0D12268116820480140D4E9E3
:1024A00001031843D4E903363343184363691843DF
:1024B000A3691843E3691843236A18430843616A10
:1024C000042903D1D4E90B13194308431060206891
:1024D0004069666A20F0070130460E430127042850
:1024E0000CD1A06A0643E06A40B12046FEF7C4FC66
:1024F00020B14020606584F83570BAE720684661F5
:102500002046FEF7A5FC94F85C203F2191408160B5
:10251000656584F835700020ACE700003F8010F05E
:102520002DE9F0410446866D90F83400002501281D
:102530000DD0012084F8340094F835700020012F6C
:1025400007D084F8340002252846BDE8F081022037
:10255000FBE7022784F8357060652046FEF7B6FC7D
:1025600094F85C103F208840B0602068016841F01A
:1025700016010160206C20B12068016841F008015B
:1025800001602068016841F001010160DCE70000A2
:102590002DE9F84FDFF8BCA10022012503264FF0FA
:1025A0000F090AF1040BAAF1040E00BF0B6805FA2B
:1025B00002F42340A34270D10F7907F00307012FE3
:1025C00001D0022F16D187684FEA420806FA08FCAC
:1025D00027EA0C07D1F80CC00CFA08FC4CEA070CEF
:1025E000C0F808C04768A7430C79C4F300149440AE
:1025F0003C4344600C79E443A4070AD0C4684FEA22
:10260000420C06FA0CF7BC438F6807FA0CF7274315
:10261000C7600C7904F00304022C12D1D40800EB3B
:10262000840CDCF820405707FF0E09FA07F824EA6B
:102630000804D1F8108008FA07F848EA0408CCF832
:10264000208004684FEA420C06FA0CF7BC430F796D
:1026500007F0030707FA0CF7274307604C6814F4E8
:10266000403F70D03C4C276847F48047276024687F
:1026700022F0030704F480440094384C07EB040C68
:10268000DCF8084897074FEA177809FA08F7BC43BF
:10269000334FB84202D1002724E054E0314FB84212
:1026A00001D101271EE0304FB84201D1022719E0C5
:1026B0002E4FB84201D1032714E02D4FB84201D16B
:1026C00004270FE02B4FB84201D105270AE02A4F1B
:1026D000B84201D1062705E0284FB84201D10727AB
:1026E00000E0082707FA08F72743CCF80878DAF85B
:1026F00000405746D1F804C09C435FEACC2C00D57B
:102700001C433C60DBF800405F46D1F804C09C43AA
:102710005FEA8C2C00D51C433C60DEF80040774615
:10272000D1F804C09C435FEA8C3C00D51C433C605C
:10273000084F083F3C68D1F804C09C435FEACC3C9A
:1027400000D51C433C60521C102AFFF42FAFBDE89B
:10275000F88F0000083C014044380240003001403E
:10276000000002400004024000080240000C024049
:10277000001002400014024000180240001C0240F9
:102780000AB1816170470904FBE7000001488068D5
:10279000704700004400002002488168027811441C
:1027A00081607047440000200B4810B5016841F477
:1027B00000710160016841F480610160016841F4C9
:1027C00080710160032000F099F8052000F006F800
:1027D00000F04AF8002010BD003C024030B505462C
:1027E0001C4887B00024016841F400310160006892
:1027F00006A900F40030009001A800F02BF900F0C9
:1028000059F915494000B0FBF1F11548134A491E2A
:10281000026040F2E732C0E90324C0E90114846198
:1028200000F0A8FB040012D10D4800F00BFC0400DE
:102830000DD1192000F034F8102D07D200222946BE
:10284000192000F03BF80748056000E0012407B0BC
:10285000204630BD4438024040420F000044014051
:10286000040E0020480000200C4882B0016841F4AA
:1028700080410160006800F4804000900748001F1C
:10288000016841F0805101600068002200F0805032
:1028900000900F21901E02B000F010B844380240A2
:1028A000002809DB00F01F0201219140400980004F
:1028B00000F1E020C0F8001170470000F0B40E4BAA
:1028C0001B680C46C3F30223C3F10705042D00D98E
:1028D0000425191D072901D2002300E0DB1E012673
:1028E00006FA05F1491E214099409E40761E164089
:1028F0003143F0BC02F065BD0CED00E0064900F08C
:10290000070208684FF6FF03184040EA0220034A16
:1029100010430860704700000CED00E00000FA056D
:102920002DE9F0470E46050065D0DFF81481D8F890
:102930000000F7B200F00700B04207D288F800703C
:10294000D8F8000000F00700B04254D128683D4C90
:10295000810712D5400703D5206840F4E05020607D
:102960002878000703D5206840F460402060206884
:10297000A96820F0F000084320602878C0072DD017
:10298000304968680839012812D0022813D003287A
:1029900011D00968890700292DDA216821F0030187
:1029A00001432160FFF7F2FE814641F2883A0EE0D2
:1029B00009688903EFE709688901ECE7FFF7E6FE9C
:1029C000A0EB0901514502D90320BDE8F08720683A
:1029D000696800F00C00B0EB810FEFD1D8F800105F
:1029E000404601F00701B14207D90770006800F0C6
:1029F0000700B04201D00120E7E72878400705D55D
:102A00002068E96820F4E050084320602878000737
:102A100006D52068296920F4604040EAC1002060A2
:102A200000F058F82168084AC1F30311515CC8400E
:102A30000649086006480068FFF7D0FE0020C4E79A
:102A4000003C02400838024060B6000850000020F8
:102A5000480000200F2202600C4A136803F00303B1
:102A60004360136803F0F0038360136803F4E053DA
:102A7000C36012684FF4E05303EAD20202610448D3
:102A8000006800F007000860704700000838024046
:102A9000003C02400448054900680968044AC1F343
:102AA0008221515CC8407047500000200838024025
:102AB00070B600080448054900680968044AC1F373
:102AC0004231515CC8407047500000200838024035
:102AD00070B60008104810B5006810F00C010F48DF
:102AE00018D0042916D0082914D10B4C241F2168B2
:102AF00001F03F02216821680023C1F38811A1FB86
:102B00000001FDF78BFC2168C1F30141491C49001C
:102B1000B0FBF1F010BD0000083802400024F400C2
:102B20002DE9F84F04006ED02078DFF84C93C007F1
:102B3000A9F104054AD009F104000168C1F381013B
:102B4000012908D00068C0F3810002280AD1D9F811
:102B50000000400206D52868800337D56068002849
:102B6000E1D033E06068B0F5803F10D0B0F5A02F21
:102B7000286810D020F480302860286820F4802055
:102B800028606068A8B1FFF701FE06460DE02868DE
:102B900040F48030F4E740F480202860F7E700BF7D
:102BA000FFF7F4FD801B642873D828688003F7D5ED
:102BB0000CE0FFF7EBFD064605E000BFFFF7E6FD82
:102BC000801B6428F0D828688003F7D42078DFF8C9
:102BD000AC8280074FF0000A3ED5A748001D01686F
:102BE00011F00C0F08D00068C0F3810002280BD14F
:102BF000D9F80000400207D42868800716D5E0689D
:102C0000012800D112E033E1E068B8B10120C8F832
:102C10000000FFF7BBFD064605E000BFFFF7B6FD6D
:102C2000801B0228C0D828688007F7D5286821694A
:102C300020F0F80040EAC10028600DE0C8F800A0CC
:102C4000FFF7A4FD064604E0FFF7A0FD801B022865
:102C50001FD828688007F7D42078000722D5864F30
:102C600087486169703771B101210160FFF78EFDFE
:102C7000064604E0FFF78AFD801B022809D8386861
:102C80008007F7D50EE0C0F800A0FFF77FFD0646ED
:102C900005E082E0FFF77AFD801B02287DD83868C6
:102CA0008007F7D42078400768D5DFF8CCB100273B
:102CB0000BF13C0BDBF80000C0000BD4DBF800107C
:102CC00041F08051CBF80010DBF80000012700F044
:102CD000805000906B4E3068C00510D4306840F4CE
:102CE00080703060FFF752FD009005E0FFF74EFD69
:102CF0000099401A022850D83068C005F6D55E4EBB
:102D0000A0686C3601280FD00528306810D020F05C
:102D100001003060306820F004003060A068B8B175
:102D2000FFF734FD00900FE0306840F00100F4E759
:102D300040F004003060F7E7FFF728FD0099411AE2
:102D400041F28830814266D830688007F4D50EE0C1
:102D5000FFF71CFD009007E0FFF718FD0099411AEE
:102D600041F28830814256D830688007F4D42FB1C0
:102D7000DBF8001021F08051CBF80010A069C8B337
:102D80003D49091D0968C1F3810102294AD0022881
:102D9000504607D0C8F8600000E03CE0FFF7F6FCC2
:102DA00004463BE04746C8F86000FFF7EFFC0646E4
:102DB00005E000BFFFF7EAFC801B02282BD828683B
:102DC0008001F7D4D4E907010843A16A2E4A4908D3
:102DD00002EB0141626A41EA8211084394F82C1027
:102DE00040EA0161C9F8001001203866FFF7CEFC07
:102DF000044606E03EE000BFFFF7C8FC001B0228C7
:102E000009D828688001F7D534E000BFFFF7BEFC81
:102E1000001B022802D90320BDE8F88F2868800132
:102E2000F4D427E00128F7D0D9F80000E26900F4D3
:102E3000800191421CD1226A00F03F01914217D1DA
:102E400047F6C071626A0140B1EB821F10D1A26ADD
:102E50004FF0FF3300F4403103EB5202B1EB024F6D
:102E600006D194F82C1000F07060B0EB016F01D027
:102E70000120D1E70020CFE704380240000047429C
:102E8000800E4742007000400000FFFF704770470F
:102E900010B590F83C20012A22D0012280F83C2075
:102EA000CA688C6822F4407222434C6822F4806223
:102EB00022430C6822F4006222430C6922F48052FF
:102EC00022434C6922F400522243C969002322F4B0
:102ED00080420A4301684A6480F83C30002010BDFB
:102EE000022010BD70B590F83C20012A32D0012498
:102EF00080F83C40022280F83D2003685A689D68B3
:102F000022F070060A6832435A60134B02689A42F4
:102F100014D0B2F1804F11D0104B9A420ED0104B0A
:102F20009A420BD00F4B9A4208D00F4B9A4205D0D1
:102F30000E4B9A4202D00E4B9A4204D1496825F0BA
:102F400080031943916080F83D40002180F83C10D7
:102F5000084670BD022070BD000001400004004022
:102F600000080040000C0040000401400040014007
:102F70000018004010B5040003D094F83D0010B1D3
:102F800007E0012010BD002084F83C00204600F03E
:102F90001FF8022084F83D00211D206801F048FD43
:102FA000012084F8460084F83E0084F83F0084F84D
:102FB000400084F8410084F8420084F8430084F81B
:102FC000440084F8450084F83D00002010BD000056
:102FD00008B501681748814212D11748016841F0CD
:102FE000010101600068002200F00100009005214D
:102FF0001920FFF763FCBDE808401920FFF750BC1B
:103000000D480E4A001F914207D1016841F00201AC
:103010000160006800F0020009E0094A914207D10E
:10302000016841F040010160006800F0400000903C
:1030300008BD000000000140443802400004004088
:103040000018004090F83D10012901D00120704780
:10305000022180F83D100168CA6842F00102CA608E
:1030600000681149884214D0B0F1804F11D00F4947
:1030700088420ED00E4988420BD00E49884208D0B3
:103080000D49884205D00D49884202D00C4988423A
:1030900004D1816801F00701062903D0016841F0DD
:1030A0000101016000207047000001400004004061
:1030B00000080040000C00400004014000400140B6
:1030C0000018004070B5044690F83C000025012827
:1030D00017D0012684F83C60022084F83D00206867
:1030E000826822F0770222F47F42826008685028CA
:1030F00038D00DDC20284FD005DC90B3102811D13A
:103100004AE0022070BD302846D040280AD13BE07A
:1031100060282FD070280DD0B0F5805F03D0B0F5B7
:10312000005F12D0012584F83D60002084F83C0047
:10313000284670BDCB68D1E90121206801F0E9FC87
:103140002068816841F0770109E0CB68D1E901216D
:10315000206801F0DEFC2068816841F480418160D4
:10316000E1E719E0CA684968206801F0EDFD5021E7
:10317000206806E0CA684968206801F0F6FD602111
:10318000206801F0D0FCCEE7CA684968206801F0E9
:10319000DBFD40212068F4E7226801461046F0E795
:1031A000704770B50446006801694FF00005C943D7
:1031B000890715D4C168C943890711D4E91E016183
:1031C00001202077206880698007204602D0FFF721
:1031D000E7FF04E000F0DAF8204600F06CF925770C
:1031E00020680169C943490717D4C168C943490721
:1031F00013D46FF0040101610220207720688069F8
:1032000010F4407F204602D0FFF7CAFF04E000F030
:10321000BDF8204600F04FF9257720680169C943C1
:10322000090716D4C168C943090712D46FF0080111
:103230000161042020772068C0698007204602D001
:10324000FFF7AEFF04E000F0A1F8204600F033F9EC
:10325000257720680169C943C90617D4C168C943E5
:10326000C90613D46FF0100101610820207720688F
:10327000C06910F4407F204602D0FFF791FF04E0C0
:1032800000F084F8204600F016F9257720680169DF
:10329000C943C90708D1C168C943C90704D1891EF8
:1032A0000161204600F06CF920680169C9430906F4
:1032B00009D4C168C943090605D46FF080010161D2
:1032C0002046FFF7E3FD20680169C943490609D498
:1032D000C168C943490605D46FF040010161204629
:1032E00000F083F920680169C94389060BD4C168DD
:1032F000C943890607D46FF0200101612046BDE86B
:103300007040FFF7C4BD70BD30B587B004461421CE
:103310006846FDF793F92468174D002117480222EB
:103320000123AC4211D1046844F010040460006829
:1033300000F0100005904FF4D4400090CDE9012139
:10334000CDE9031369460E4811E00E4DAC4210D191
:10335000046844F0020404600068009300F0020076
:103360000590CDE90121CDE9031269460648FFF732
:103370000FF907B030BD00000000014030380240B6
:10338000001002400004004000040240704770B585
:10339000044690F83C0000260D4601280FD001207D
:1033A00084F83C006AB1042A1DD0082A2FD00C2AC8
:1033B0003FD00126002084F83C00304670BD02203A
:1033C00070BD206801F0B8FB2068816941F00801F8
:1033D00081612068816921F004018161206881692F
:1033E0002A69114311E0206801F0D6FB2068816949
:1033F00041F4006181612068816921F4806181610B
:10340000206881692A6941EA02218161D2E7206846
:1034100001F0F8FB2068C16941F00801C161206832
:10342000C16921F00401C1612068C1692A691143A1
:1034300011E0206801F01AFC2068C16941F40061C4
:10344000C1612068C16921F48061C1612068C169DE
:103450002A6941EA0221C161ACE710B5040003D03A
:1034600094F83D0010B107E0012010BD002084F861
:103470003C00204600F01EF8022084F83D00211D8B
:10348000206801F0D5FA012084F8460084F83E0057
:1034900084F83F0084F8400084F8410084F842003A
:1034A00084F8430084F8440084F8450084F83D0023
:1034B000002010BD7047704710B50446022249B184
:1034C00004290ED0082913D094F84100012816D001
:1034D000012010BD94F83E000128F9D184F83E2067
:1034E0000FE094F83F000128F2D184F83F2008E073
:1034F00094F840000128EBD184F8402001E084F8E2
:1035000041200122206801F0F7FA16492068164A86
:10351000884201D0904203D1436C43F4004343649A
:103520002068884213D0B0F1804F10D00F498842F4
:103530000DD00F4988420AD00E49884207D09042E8
:1035400005D00D49884202D00C49884204D18168D7
:1035500001F00701062903D0016841F00101016073
:10356000002010BD000001400004014000040040A4
:1035700000080040000C00400040014000180040DE
:1035800000680349884201D1FFF706B9704700007F
:103590000044014070B5044690F83C00012812D068
:1035A000012584F83C50022084F83D00204601F0BB
:1035B00085FB01004FF0000007D084F83D5084F8EF
:1035C0003C00012070BD022070BD2168CA6822F055
:1035D0004002CA602168CA6822F48042CA6084F846
:1035E0003D5084F83C00002070BD7047704710B516
:1035F00004460068406994F83D10C0F3C0102129CA
:1036000011D180B12068143050E8001F21F08001F2
:1036100040E80012002AF5D1606B08B1FEF7EBFD1F
:10362000204601F09BFC2068406994F83E10C0F3EE
:103630008010222911D180B12068143050E8001F79
:1036400021F0400140E80012002AF5D1A06B08B13A
:10365000FEF7D1FD204601F05AFC002010BD704756
:10366000F8B5016804460868CA684B6910F00F0F86
:103670004FF0000559D003F0010602F4907737436C
:1036800065D0C10705D0D10503D5216C41F00101FA
:103690002164410705D5D90703D0216C41F002010F
:1036A0002164810705D5D90703D0216C41F00401BD
:1036B0002164010707D502F02001314303D0216CBA
:1036C00041F008012164216C00293AD0800604D51C
:1036D000900602D5204601F04FFC20684069216C1D
:1036E000C0F38010090700D460B3204601F00FFC3E
:1036F00020684069400621D52068143050E8001F3A
:1037000021F0400140E80012002AF5D1A06BA8B1D9
:103710006C490165A06BFEF7B7FD002811D0A06BC6
:10372000016D01B0BDE8F040084783060FD5930650
:103730000DD52046BDE8F84001F01EBC2046FFF73D
:103740008EFFF8BD2046FFF78AFF2564F8BD266B83
:103750002023012E79D1C60677D5D60675D50868FF
:10376000486800904869400640D5A16B08684068E9
:103770000004000CEAD0A28D8242E7D9E085C86936
:10378000B0F5807F2DD020680C3050E8001F21F468
:10379000807140E80012002AF5D12068143050E80A
:1037A000001F21F0010140E80012002AF5D1206835
:1037B000143050E8001F21F0400140E80012002AB8
:1037C000F5D184F83E30256320680C3050E8001FA6
:1037D00021F0100140E80012002AF5D1A06BFEF79D
:1037E0000AFDA08DE18D401A81B229E0A08DE18D06
:1037F000401A81B2E08D0028A8D00029A6D0206808
:103800000C3050E8002F22F4907240E80026002E81
:10381000F5D12068143050E8002F22F0010240E872
:103820000026002EF5D184F83E30256320680C3048
:1038300050E8002F22F0100240E80023002BF5D1C1
:103840002046FFF7D3FEF8BDFFE705062BD515068A
:1038500029D594F83D002128F5D1A068B0F5805F06
:1038600001D12069B0B1206A411C21622168007831
:103870004860E08C401E0004000CE084E3D1206826
:10388000C16821F08001C1602068C16841F0400139
:10389000C160D8E7206A0088C0F308004860206A49
:1038A000801C2062E5E74006CDD55006CBD5CA681E
:1038B000204622F04002CA6084F83D3000F070FAE1
:1038C000C1E70000CD4D000870B5040004D094F8A5
:1038D0003D00002510B106E0012070BD84F83C5089
:1038E000204600F023F8242084F83D002068C168B9
:1038F00021F40051C160204601F09EFB206801695F
:1039000021F4904101612068416921F02A0141615F
:103910002068C16841F40051C1602564202084F80A
:103920003D0084F83E00002070BD00002DE9F04FFE
:1039300087B0054614216846FCF780FED148DFF8C1
:1039400040830221D5F800C0CE4B10380122032756
:1039500000248E064FF0400B4FF48069C44562D1BD
:10396000D3F800C04CF4801CC3F800C01B6803F4FB
:1039700080130593036843F004030360036803F0B6
:1039800004030593036843F00803036000684FF0E5
:10399000080800F008000590C80200900220CDE958
:1039A0000102CDE9037892466946B748FEF7F0FD7B
:1039B000042000900220CDE9010ACDE90378694690
:1039C000B248FEF7E5FDB34FB1483860C7E901647E
:1039D000C7E903497C61BC61FC613C6238467C629A
:1039E000FEF734FD08B1FDF786FAAF63BD63A94F5A
:1039F000A7486037A830C7E903497C61BC61FC6116
:103A00003C627C6287E841083846FEF71FFD08B13A
:103A1000FDF771FA6F63002205213520BD63FEF7C3
:103A20004DFF35203FE0DFF87082DFF858E24FF0BD
:103A3000070A0EF1040EC4453AD1DEF800C04CF07E
:103A4000100CCEF800C0DEF8003003F01003059330
:103A5000036843F001030360006800F00100059073
:103A60004FF4C0608DE8870469468C48FEF790FDEE
:103A7000884F8B48C0373860C7E90164C7E90349FC
:103A80007C61BC61FC613C6238467C62FEF7DEFC16
:103A900008B1FDF730FAAF63002205212520BD6390
:103AA000FEF70CFF2520FEF7FBFE07B0BDE8F08F08
:103AB000DFF8F081C44559D1D3F800C0A0464CF4DA
:103AC000003CC3F800C01B6803F40033059303688F
:103AD00043F001030360006800F0010005900C2032
:103AE0008DE8870469466D48FEF752FD6849DFF8A6
:103AF000B8A178315046CAF80010C0E90164C0E9A5
:103B00000349CAF81440CAF81840CAF81C40CAF859
:103B100020404F46CAF82440FEF798FC08B1FDF754
:103B2000EAF9614C5A48C5F838A060349030CAF8B8
:103B3000385084E84108C4E90387C4F81480C4F805
:103B40001880C4F81C80C4F820802046C4F8248063
:103B5000FEF77CFC08B1FDF7CEF96C63002205216D
:103B60002620A563FEF7AAFE26209CE7DFF83C810D
:103B7000C4455DD1D3F800C04CF4802CC3F800C01C
:103B80001B6803F480230593036843F0020303607A
:103B9000006800F0020005904FF440608DE8870453
:103BA00069464348FEF7F4FCDFF8FC80384908F129
:103BB000C00818314046C8F80010C0E90164C0E9E7
:103BC0000349C8F81440C8F81840C8F81C40C8F8A1
:103BD00020404F46C8F82440FEF738FC08B1FDF7F6
:103BE0008AF9C5F83880C8F83850DFF8C880284905
:103BF00040464831C0E90347C8F81440C8F81840A7
:103C0000C8F81C40C8F8204088E84208C8F824409A
:103C1000FEF71CFC08B1FDF76EF9C5F834800022F0
:103C200005212720C8F83850FEF748FE27203AE73C
:103C3000214B9C457FF439AFDEF8004044F020046E
:103C4000CEF80040DEF8003003F02003059303684F
:103C500043F004030360006800F004000590C020F6
:103C60008DE887000820049069460748FEF790FC1D
:103C7000002205214720FEF721FE472013E7000020
:103C8000005000404038024000080240000C024052
:103C900010600240640B0020001001400000024050
:103CA0004064024000440040840C00200048004072
:103CB00000040240A40D00200014014090F83E30A2
:103CC000202B0ED159B152B190F83C30012B08D0C5
:103CD000012380F83C300023036301F033BA012054
:103CE00070470220704790F83E30202B0ED159B11A
:103CF00052B190F83C30012B08D0012380F83C30C1
:103D00000023036301F068BA012070470220704766
:103D10007047704770B5044690F83D00202836D1B2
:103D200091B38AB394F83C00012830D0012084F884
:103D30003C002162A284E28400252564212084F8CD
:103D40003D00636B1348D863636B13481864636B5F
:103D50001248D864606B134605652668606B321D97
:103D6000FEF7DEFB21686FF04000086084F83C50ED
:103D70002068143050E8001F41F0800140E8001234
:103D8000002AF5D1002070BDFFE70120FBE70220EB
:103D9000F9E70000C34E0008054F0008DD4D00089C
:103DA00070477047FEE7000070B504004FF0000652
:103DB00009D0674D2068C5F816002079A8762078CC
:103DC000A52803D0C2E04FF0FF3070BD052120468A
:103DD00001F0E2FA01284BD161782046093101F067
:103DE000BDFA012844D1B4F80500012640F20222B0
:103DF000A0F20221904262D019DC40F20112A0F23E
:103E00000111904244D008DC012825D0022830D08E
:103E1000032831D004282BD133E001293DD00329D8
:103E200040D0042943D0B1F5807F21D142E005295B
:103E300059D008DC012947D002294AD003294BD0A8
:103E4000042978D14DE0062957D007295DD00829EB
:103E500060D0FF296FD168E03E48D4F807100160B8
:103E6000D4F80B104160B4F80F100181617C8172AD
:103E700061E0E07928705EE036482022E11D0B30D9
:103E800057E0B4F80700A5F80700607A687252E0BE
:103E9000D4F80700C5F80A004DE0D4F80700C5F8CB
:103EA0000E0048E0B4F80700A5F8050043E0E0790B
:103EB000687040E027481B22E11D2B3039E025487F
:103EC0001022E11D463034E022481022E11D563018
:103ED0002FE0E079A8702EE0B4F80700A5F8030001
:103EE00029E0E0792871D4F8070045F8270FB4F8E5
:103EF0000B00A880607BA8711DE0D4F8070045F88E
:103F00001B0FB4F80B00A88015E0D4F80700C5F823
:103F1000120010E0D4F8070045F8210FD4F80B0088
:103F20006860D4F80F00A86005E00A481422E11D7B
:103F30006630FCF7EAFA064809341630B0F801009A
:103F4000015DA52902D12044FFF72EFF304670BD48
:103F5000D8000020394F00207FB500241548009478
:103F6000019402941249039401604FF48031C0E936
:103F700001140461047680F820400F49C0E90A1456
:103F80000125C561C46080F830404561FDF7BEFC85
:103F900008B1FCF7B0FF0920CDE90005694602949D
:103FA0000448FDF70DFC002801D0FCF7A4FF7FBDFD
:103FB00000200140A00800200100000F0F4810B5AC
:103FC0000D4901600621416000214FF400328160FB
:103FD000C0E9031212014261017601224276817624
:103FE000C27601774277FDF75AFF002803D0BDE87B
:103FF0001040FCF780BF10BD00640040E8080020BE
:104000000F4810B50D4901600621416000214FF4B1
:1040100000328160C0E9031212014261017601227F
:1040200042768176C27601774277FDF738FF002825
:1040300003D0BDE81040FCF75EBF10BD0068004033
:1040400010090020254808B5016841F4800101608D
:10405000016801F480010091016841F400110160E0
:104060000068002200F40010009005210B20FEF7EC
:1040700025FC0B20FEF714FC002205210C20FEF786
:104080001DFC0C20FEF70CFC002205210E20FEF783
:1040900015FC0E20FEF704FC002205211020FEF77F
:1040A0000DFC1020FEF7FCFB002205211120FEF77D
:1040B00005FC1120FEF7F4FB002205212F20FEF75E
:1040C000FDFB2F20FEF7ECFB002205213A20FEF736
:1040D000F5FBBDE808403A20FEF7E2BB303802406D
:1040E00030B5624DE7B00022D5E90001CDE96301AA
:1040F000012163A803F078FA5D4C0121206003F0F0
:1041000093FAD5E90201CDE965010022012165A8F4
:1041100003F06AFA0121606003F086FA10350DF5AC
:10412000B67C95E80F008CE80F0000215BA8103DDD
:1041300003F0A5F92035606395E80F005FAD85E8D1
:104140000F0000215FA803F09AF94849A0631C22E0
:1041500030316846FCF71EFA0021684603F01AFA6F
:104160004249E0631C224C3107A8FCF713FA0021F6
:1041700007A803F00FFA3D49E0621C2268310EA83F
:10418000FCF708FA00210EA803F004FA3749A060F2
:104190001C22843115A8FCF7FDF9002115A803F0B5
:1041A000F9F9324960611C22A0311CA8FCF7F2F930
:1041B00000211CA803F0EEF92C4960611C22BC31DF
:1041C00023A8FCF7E7F9002123A803F0E3F9274926
:1041D000A0611C22D8312AA8FCF7DCF900212AA80A
:1041E00003F0D8F92149E0601C22F43131A8FCF732
:1041F000D1F9002131A803F0CDF960621C221D49DC
:1042000038A8FCF7C7F9002138A803F0C3F9194909
:1042100020621C221C313FA8FCF7BCF900213FA8FA
:1042200003F0B8F91349A0621C22383146A8FCF704
:10423000B1F9002146A803F0ADF90E49E0611C2256
:1042400054314DA8FCF7A6F900214DA803F0A2F9BE
:10425000084920611C22703154A8FCF79BF9002109
:1042600054A803F097F9206367B030BDBCB40008D0
:1042700000000020CCB5000870B586B01421684657
:10428000FCF7DCF925480024016841F08001016059
:10429000016801F080010591016841F001010160B0
:1042A000016801F001010591016841F0040101601C
:1042B000016801F004010591016841F0020101600B
:1042C000016801F002010591016841F010010160EF
:1042D000016801F010010591016841F008010160D9
:1042E00000680F4E00F0080005900022E0213046E3
:1042F000FEF746FAE0200090012002250394CDE964
:10430000010569463046FEF743F930208DE831005B
:1043100069460448FEF73CF906B070BD30380240EB
:10432000000002400008024010B586B01421684623
:10433000FCF784F90E480D490024C0E900144FF63B
:10434000FF71C0E9024104618461FEF713FE08B108
:10435000FCF7D1FD0094694605480194FFF71AF96E
:10436000002801D0FCF7C7FD06B010BD00180040C2
:10437000C809002010B596B000240F941094119431
:10438000129413941C2168461494FCF757F92021C9
:1043900007A8FCF753F9354833490160A721C0E964
:1043A000011444F61F61C0E903148021C0E90541EE
:1043B000FEF7E0FD08B1FCF79EFD4FF480500F9032
:1043C0000FA92A48FEF77EFE08B1FCF794FD2748A6
:1043D000FFF743F808B1FCF78EFD139413A92348A7
:1043E0001494FEF77FFD08B1FCF785FD6020CDE950
:1043F00000040294039404940594002269461B4827
:104400000694FEF7C4FF08B1FCF775FD0422694667
:104410001648FEF7BCFF08B1FCF76DFD082269469F
:104420001248FEF7B4FF08B1FCF765FD0C2269469F
:104430000E48FEF7ACFF08B1FCF75DFD0794089449
:1044400009944FF400500A94CDE90B4007A907489E
:104450000E94FEF71DFD08B1FCF74DFD0348FEF775
:1044600053FF16B010BD00000000014038090020C5
:1044700010B58EB000240794089409940A940B9404
:104480001C2168460C94FCF7D9F81F481D490160AF
:10449000A721C0E9011444F61F61C0E9031480217B
:1044A0008161FEF767FD08B1FCF725FD4FF48050F0
:1044B000079007A91448FEF705FE08B1FCF71BFD9D
:1044C0001148FEF7CAFF08B1FCF715FD0B940BA9C4
:1044D0000D480C94FEF706FD08B1FCF70CFD6020BA
:1044E000CDE9000402940822694607480494FEF7C7
:1044F0004EFF08B1FCF7FFFC0348FEF705FF0EB0C6
:1045000010BD000000040040800900200C4810B5D8
:104510000A4901604FF4E1314160002181600C22C1
:10452000C160C0E904128161C161FFF7CDF90028C3
:1045300003D0BDE81040FCF7DEBC10BD00500040C9
:10454000100A00200D4810B50B4901600C4941606C
:104550004FF48051816000210C22C160C0E9041237
:104560008161C161FFF7B0F9002803D0BDE81040B8
:10457000FCF7C1BC10BD000000100140540A00202F
:10458000A08601000C4810B50A4901604FF4E131E2
:104590004160002181600C22C160C0E90412816188
:1045A000C161FFF791F9002803D0BDE81040FCF786
:1045B000A2BC10BD00440040980A00200C4810B571
:1045C0000A4901604FF4E1314160002181600C2211
:1045D000C160C0E904128161C161FFF775F900286B
:1045E00003D0BDE81040FCF786BC10BD0048004079
:1045F000DC0A00200C4810B50A4901604FF4E13193
:104600004160002181600C22C160C0E90412816117
:10461000C161FFF759F9002803D0BDE81040FCF74D
:104620006ABC10BD00140140200B0020FEE7FEE72D
:1046300030B4034C8466034CC46630BC03F02DB91F
:104640009B780008A97800080021A0F8F411A0F8D0
:10465000F6117047B0F8F411B0F8F601814203D3B7
:10466000081AC0F5FA7000E0401A80B27047B0F83E
:10467000F4114FF4FA72491CB1FBF2F302FB13116F
:10468000B0F8F601814201D1012070470020704747
:1046900000B5B0F8F4218154B0F8F4114FF4FA7277
:1046A000491CB1FBF2F302FB1311A0F8F411FFF760
:1046B000DEFF08B1002000BD012000BDF0B51546A9
:1046C0000E460746002407E0315D3846FFF7E0FF5D
:1046D000002809D0641CA4B2AC42F5D33846FFF7D9
:1046E000B9FFA84201D20020F0BD0120F0BD012099
:1046F00002F0A6FEFBE700002DE9F04F7D487E4F5B
:104700000123007800B17B707C4E96F804C0DFED89
:104710007C1A7C4ABAEE0E0ADFED7B2A4FF48E7BC0
:104720009FED7A2A9FED7A1AD2ED020A3146DFF820
:10473000E4A170EEE10A7848784C794DDFF8E49115
:104740004979F0EEE00ABCF1050F5ED2DFE80CF02B
:10475000035FBDC7AC0074486B70417821F009015C
:1047600041F00601417010EE900A5146C2ED011A67
:1047700088424ADADFED6D0A4846C5ED060A95ED36
:10478000091A71EE600AF0EEE00A10EE902A8242F9
:104790003BDAD5ED0A0A95ED071A70EEC10AF0EE84
:1047A000E00A10EE902A82422FDA614AF1EE040A02
:1047B00082ED010AC4ED010A92ED021A31EE401AAF
:1047C000B0EEC11A11EE105A8D421EDA92ED031AA4
:1047D00031EE000AB0EEC00A10EE102A524514DA8B
:1047E00094ED020A30EE600AB0EEC00A10EE101A24
:1047F00081420ADA94ED030A30EE200AB0EEC00AD4
:1048000010EE101A494500DA3371BDE8F08F012926
:1048100001D019B104E0C0ED012A01E080ED010AE8
:1048200090ED060AD0ED010A424930EE200AB0EEC2
:10483000C00A10EE100A8842E7DA01F085FDB88858
:1048400084ED012AD4ED020AB0EE420A484670EE29
:10485000C00AF0EEE00A10EE901A8142D5DAD4EDEB
:10486000030A30EE820AB0EEC00A10EE101A81423E
:10487000CBDA85ED061A95ED090A30EE410AB0EE65
:10488000C00A10EE101A8142BFDA95ED0A0AD5ED82
:10489000070A30EE600AB0EEC00A10EE101A494561
:1048A000B3DA02203071B0E710EE901AC2ED011AAF
:1048B0005145AADA9FED200A80ED010A9FED1F0AFB
:1048C00084ED010A85ED061A9FE7012904D000292D
:1048D0009BD180ED010A98E7C0ED012A95E7184ABF
:1048E0001278012A91D1BA8884ED012A85ED061A41
:1048F000EBE70000520100201053002014010020BB
:104900000000E6C228530020000024C30000E14458
:10491000000061440000A041F4510020B451002087
:104920009C520020000048428452002000D09D4547
:104930003C5200200000204100400FC40080BB44D6
:104940006001002010B5502080F31188BFF34F8F15
:10495000BFF36F8F05F0FEFF18B104494FF0805090
:104960000860002080F3118810BD000004ED00E015
:1049700030B593B030216846FBF760FE14210CA8D7
:10498000FBF75CFE1D480025016841F08051016085
:10499000006800F0805011901948016841F480418E
:1049A00001600068022400F4804011900120009012
:1049B000000401908001CDE9064008200890A8205D
:1049C000CDE9090404200B906846FEF7A9F808B168
:1049D00072B6FEE70CA90F2081E831004FF4A05019
:1049E0000F904FF48050109005210CA8FDF798FF10
:1049F000002801D072B6FEE713B030BD4038024047
:104A0000007000400248016841F470010160704785
:104A100088ED00E010B50448FEF7C3FBBDE8104088
:104A20000248FEF7BEBB000038090020040E00203B
:104A3000F0B50268254C264D264E274F274B4FF0E8
:104A4000804CA04209D0604507D0A84205D0B042B2
:104A500003D0B84201D0984204D122F0700E4A68C7
:104A600042EA0E02A0421BD0604519D0A84217D0DE
:104A7000B04215D0B84213D0984211D0184DA84278
:104A80000ED0184DA8420BD0174DA84208D0174D94
:104A9000A84205D0164DA84202D0164DA84203D117
:104AA00022F44075CA682A434D6922F080022A43E5
:104AB00002608A68C2620A688262A04201D098429B
:104AC00001D10969016301214161F0BD000001408C
:104AD0000004004000080040000C004000040140B9
:104AE00000400140004401400048014000180040DF
:104AF000001C00400020004010B501F01F03012100
:104B0000046A99408C430462016A9A40114301622D
:104B100010BD10B5846842EA032224F47F440A439E
:104B20002243826010BD826822F070020A4342F084
:104B30000701816070470000F0B5026A22F00102AF
:104B40000262036A42688469124E24F073050C689D
:104B50002C4323F002058B682B430D4DA84201D056
:104B6000B04205D123F00807CB683B4323F0040390
:104B7000A84201D0B04205D14D6922F440721543DC
:104B80008A692A4342608461496841630362F0BDD7
:104B90000000014000040140F0B5026A22F010025A
:104BA0000262026A436884690D6824F4E64444EAB8
:104BB00005248D6822F0200242EA05120F4D104EA6
:104BC000A84201D0B04206D1CF6822F0800242EA6A
:104BD000071222F04002A84201D0B04207D14D692D
:104BE00023F4406343EA85038D6943EA8503436008
:104BF0008461496881630262F0BD000000000140E9
:104C000000040140F0B5026A22F480720262026A76
:104C10004368C46922F4007224F073050C68124ED4
:104C20002C438D6842EA05220E4DA84201D0B042C5
:104C300006D1CF6822F4006242EA072222F48062A1
:104C4000A84201D0B04207D14D6923F4405343EA52
:104C500005138D6943EA05134360C4614968C16364
:104C60000262F0BD000001400004014030B5026A5C
:104C700022F480520262046A4268C3690D6823F418
:104C8000E64343EA05238D6824F4005444EA0534DE
:104C9000084DA84202D0084DA84204D14D6922F423
:104CA000804242EA85124260C3614968016404623D
:104CB00030BD0000000001400004014070B50368F1
:104CC00000249A6822F070054A682A4322F00705FA
:104CD0000A682A439A604A6812F00F0F31D1121104
:104CE000082A2ED2DFE802F02E2E2E2E0B212704CA
:104CF0000B69D1E902210068FFF70BFF22E00A6887
:104D0000052A10D00268136A156A25F0010515629C
:104D100002689569096925F0F00545EA011191617C
:104D2000006803620EE0012070BD0A6989680068AE
:104D300000F00AF806E00A698968006800F015F8D2
:104D400000E00124204670BD10B5036A046A24F017
:104D500001040462846924F0F00444EA021423F09C
:104D60000A020A438461026210BD10B5036A23F08F
:104D7000100303628369046A23F4704343EA023236
:104D800024F0A00343EA01118261016210BD00001A
:104D900030B500221C216FF02F04435CA3F13005D5
:104DA000092D05D802EB820204EB42021A4492B2AA
:104DB000491C2829F1DB0148828030BD10530020B6
:104DC0000148FEF74DBC0000100A002010B5806BB2
:104DD0000021C185C184FEF742FC10BD70B5846B13
:104DE0002068406994F83D10C0F3C01000252129C7
:104DF00004D118B1E584204600F0B0F8206840697D
:104E000094F83E10C0F38010222904D118B1E58532
:104E1000204600F07CF8206C40F010002064204612
:104E2000FEF71DFC70BD10B50146806B096809686E
:104E3000C9052FD40021C18501680C3151E8002F2C
:104E400022F4807241E80023002BF5D1016814316F
:104E500051E8002F22F0010241E80023002BF5D198
:104E60000168143151E8002F22F0400241E800238C
:104E7000002BF5D1202180F83E10016B012909D1CA
:104E800001680C3151E8002F22F0100241E80023A4
:104E9000002BF5D1016B012902D0FEF739FF10BDBF
:104EA000818DFEF7A3FB10BD10B5806B016B01294E
:104EB00002D0FEF72EFF10BD818D4908FEF796FB4C
:104EC00010BD10B50146806B09680968C90516D484
:104ED0000021C1840168143151E8002F22F08002C2
:104EE00041E80023002BF5D101680C3151E8002F77
:104EF00042F0400241E80023002BF5D110BDFEF73F
:104F00004FFF10BD10B5806BFEF74BFF10BD016861
:104F10000C3151E8002F22F4907241E80023002B5D
:104F2000F5D10168143151E8002F22F0010241E867
:104F30000023002BF5D1016B012909D101680C3147
:104F400051E8002F22F0100241E80023002BF5D198
:104F5000202180F83E1000210163704701680C3168
:104F600051E8002F22F0C00241E80023002BF5D1C8
:104F7000202180F83D10704708B590F83E10222996
:104F800001D0022008BD82684FF480539A4201D1BB
:104F9000016921B1816A9A421BD04AB10AE00268D4
:104FA000816A5268C2F308020A80816A891C08E09B
:104FB000026972B10268526802F07F020A70816A67
:104FC000491C8162C18D491E0904090CC18503D0A9
:104FD00019E002685268F1E70168CA6822F020020D
:104FE000CA600168CA6822F48072CA6001684A69AE
:104FF00022F001024A61202180F83E10016B012954
:1050000003D0FEF785FE002008BD00210163016882
:105010000C3151E8002F22F0100241E80023002B50
:10502000F5D101680A68D20602D50A68496800917C
:10503000818DFEF7DBFAE6E770B50446006801698A
:10504000E26821F44051114301612169A068E269DD
:1050500008436169114308432168CA6849F20C6337
:105060009A430243CA6020684169A26921F44071F1
:105070001143416131492068884202D03049884259
:1050800002D1FDF717FD01E0FDF704FDE269002301
:10509000192164253226B2F5004F626828D0A0FBA2
:1050A0000101930F9200FBF7B9F90146B0FBF5F04F
:1050B0006FF01802504301EB800006EB0010B0FBCC
:1050C000F5F000F0F002B1FBF5F002EB0012B1FBDD
:1050D000F5F06FF01803584301EB800006EB001069
:1050E000B0FBF5F000F00F0021681044886070BD3F
:1050F000A0FB010192185B41FBF790F90146B0FB60
:10510000F5F00201B1FBF5F06FF01803584301EB25
:10511000800006EBC000B0FBF5F000F0F80002EBF9
:105120004002B1FBF5F0584301EB800006EBC000F4
:10513000B0FBF5F000F00700D6E7000000100140DA
:105140000014014038B5816282850025134604466B
:105150000564222084F83E00A26B1C48D063A26B39
:105160001B481064A26B1B48D064A06B0A460565FF
:105170002168A06B091DFDF7D3F92068016840681C
:10518000009084F83C50206948B120680C3050E809
:10519000001F41F4807140E80012002AF5D1206818
:1051A000143050E8001F41F0010140E80012002ACD
:1051B000F5D12068143050E8001F41F0400140E86C
:1051C0000012002AF5D1002038BD0000274E00084B
:1051D000A94E0008DD4D000881628285C28500214C
:1051E0000164222280F83E2080F83C10016921B140
:1051F0000168CA6842F48072CA6001684A6942F074
:1052000001024A610068C16841F02001C1600020CC
:105210007047000010B50448FEF722FABDE81040C0
:10522000014800F087B80000540A002010B5044877
:10523000FEF716FABDE81040014800F07BB8000008
:10524000980A002010B50448FEF70AFABDE810409D
:10525000014800F06FB80000DC0A002010B50448D7
:10526000FEF7FEF9BDE81040014800F063B8000009
:10527000200B002010B504460168244881420AD161
:105280002349244802F098FF32212148FBF7B4F962
:1052900032221F4921E0204881420CD11C48323083
:1052A000FEF782FD1A48C8213230FBF7A5F91849EC
:1052B000C822323111E01948814213D11849FF2028
:1052C00008701348FA30FFF763FD11485021FA3097
:1052D000FBF792F90E495022FA312046BDE8104002
:1052E000FEF7ECBC0F4881420FD127220E490F4830
:1052F000FFF7E4F927210C48FBF77EF9BDE81040E1
:10530000272209490A48FEF7EEBC10BD00100140F3
:10531000C84D0020105400200044004000480040C8
:10532000F453002000140140124F0020BA4F002017
:10533000200B002038B5016804460868C043C00649
:105340000AD40868486800902046FEF750F92046C5
:10535000BDE83840FFF78EBF38BDFEE730B50C46DC
:10536000050014D0022C12D90A48A11E0288284632
:10537000FBF7C4FD2919C2B211F8023C9A4206D1CA
:1053800011F8011CB1EB102F01D1012030BD00201C
:1053900030BD0000F401002030B50C4605000ED0F1
:1053A000022C0CD9601E81B2FF222846FBF7BCFDFF
:1053B000291911F8011C814201D1012030BD0020C2
:1053C00030BD0907090E002804DB00F1E02080F859
:1053D0000014704700F00F0000F1E02080F8141D69
:1053E000704730EE201AD0ED001AF4EEC11AF1EE3B
:1053F00010FA02DCB0EE611A01E080ED001A30EE26
:10540000C00AB4EEC01AF1EE10FA01D280ED000A23
:105410007047000070B54FF47A742DED028BA50033
:105420009FED2B8AB1EE040A2346B0EE481AF0EE47
:10543000480A2A4603212748FFF7FAF82548B0EE24
:10544000481AF0EE480AB1EE040A23462A46032120
:105450007030FFF7EDF8E400B0EE481AF0EE480ABD
:10546000B3EE020A0023224603211B48FFF7E0F8AF
:105470001948B0EE481AF0EE480AB3EE020A0023CB
:10548000224603217030FFF7D3F8DFED148A40F68F
:10549000B83443F69825B0EE481AF0EE680AB1EE3B
:1054A0000C0A23462A4603210D48FFF7C1F8B0EE47
:1054B000481AF0EE680ABDEC028B23462A46BDE886
:1054C000704007480321B1EE0C0A7030FFF7B0B806
:1054D00000000000305C0020705A0020CDCC4C3D14
:1054E000505B00202DE9F041454C00272DED028B4B
:1054F000A078022800D027702278424D01219AB16D
:10550000424EDFF80481012AB6F9040016D0022ABF
:1055100046D0042A04D1BAEE0E0A84ED010A617065
:10552000BDEC028BBDE8F08167616888401C80B2E9
:1055300068800A28F4D921706F80F1E700EE100A24
:105540003148DFED330AB8EEC00A703802F09AF83D
:10555000BDEEC00ADFED2F0A10EE100AA082B6F9E8
:105560001C0000EE100A4046B8EEC00A02F08AF8AD
:10557000BDEEC00A10EE100AE082B6F90400001D6C
:105580000828D9D8B6F91C00001D0828D4D8688886
:10559000401C80B268803228C2D902202070CBE73C
:1055A00000EE100A9FED1C8A1748B8EEC00AF0EE14
:1055B000480A703802F066F8BDEEC00AF0EE480AFC
:1055C00010EE100AA082B6F91C0000EE100A404648
:1055D000B8EEC00A02F056F8BDEEC00A10EE100A8E
:1055E000E08296ED030A0420B8EEC00A84ED080AB2
:1055F00096ED090AB8EEC00A84ED090ACEE700006C
:105600003C52002072010020A05C0020C44C00200D
:1056100000007A4400007AC4000000002DED048BE5
:1056200082B001F020FF9FED688ADFF8A0A1684DED
:10563000684C694E694FDFF8A881DFF8A8910090A7
:1056400004F0CEFB95ED030AF8EEC00A94ED080ACB
:1056500030EEC00A20EE080A84ED020A95ED090A30
:10566000F8EEC00A94ED090A30EEC00A20EE080AEE
:1056700084ED030A607820B1012805D0022802D108
:1056800080E0002060617FE0BAF9000005F028FCAE
:1056900041EC190BB4F91C00D4ED010A00EE100A1C
:1056A000B8EEC00A30EE600AB0EEC00A10EE100A82
:1056B00005F088FE53EC192B05F064FD5BD2B4F9BC
:1056C0001C00D4ED010A00EE100ABAF80010B8EE82
:1056D000C00AB4EEE00AF1EE10FA01DD401A00E073
:1056E0000844A08300B200EE100A3F48F8EEC00A5A
:1056F00094ED020A01F0C6FFBDEEC00A10EE100ADA
:1057000000B200EE100A2082B5F90400F8EEC00ADB
:1057100000EE100A3548B8EEC00A01F0B3FFBDEE46
:10572000C00A10EE100AA082B4F91C00404200EE3C
:10573000100A2D48F8EEC00A94ED030A703001F00B
:10574000A1FFBDEEC00A10EE100A00B200EE100A72
:105750006082B5F91C00F8EEC00A00EE100A23487A
:10576000B8EEC00A703001F08DFFBDEEC00A10EE39
:10577000100AE08208E094ED010ABDEEC00A10EEC6
:10578000100AAEE7FFF7AEFE6078A070B4F914001F
:10579000FAF7C2FDB080B4F91600FAF7BDFDB88083
:1057A00000220D49D8F8000001F0C6FE00220B4986
:1057B000D9F8000001F0C0FE04F032FB0421684675
:1057C00001F045FE3CE700000000803B7201002034
:1057D000C44C00203C520020A84D0020B84D0020B1
:1057E0003400002038000020705A0020505B002058
:1057F0002DE9F05FFB4CDFF8F093DFF8F0A3B1EE9A
:10580000041A2DED0C8B94F800C0DFEDF99A9FED92
:10581000F98AFAEE0E8AF848F849F94A90ED0A0A30
:10582000D0ED070AD1ED025A91ED035A30EE600A2D
:1058300075EEC10A90ED094AD2ED064AB0EEC00AF3
:10584000F0EEE03A75EE010AB0EEE03ADFEDED0A77
:10585000ED4BEE4D74EEA00A93ED02BAD5ED02AA1F
:10586000EB4DF0EEE02A7BEE690A6D7845F0010E13
:10587000B0EEE02ADFEDE70A2546F0EE00BA74EE5E
:10588000600AED6AF6EE001A05F1010BF0EEE07A1F
:10589000D0ED060AE04DB7EE009A92ED017AD3ED15
:1058A000016A91ED016A70EEABCA30EEEBCA7AEE96
:1058B000E1BA37EE09AA76EEA1DA36EE09DA7AEE27
:1058C000A1AA2F7D6E7D0025BCF10B0F7DD2DFE8F4
:1058D0000CF0069298FEFDCDFCFBFA84F900C14F56
:1058E0000126BF1D46703F78012F43D0DFEDCB0A64
:1058F0002563C1ED010A35EEE01AC949B0EEC11ABF
:1059000011EE105A8D4268DA75EE200AF0EEE00AC8
:1059100010EE905A8D4260DADFEDC20AC24DC3ED3F
:10592000010A7BEE600AF0EEE00A10EE903AAB421C
:1059300053DA74EE480A80ED068AF0EEE00A10EEC3
:10594000900A884249DA10EE100A884245DA34EEAD
:10595000A80A022589F80150C2ED018AB0EEC00AFA
:1059600010EE100A504538DA092001F049FD68B3FD
:1059700025703DE0A54F02257D7089F80160DFEDBF
:10598000AB0AC0ED060A74EE600AA548F0EEE00A24
:1059900010EE905A854220DA10EE105A85421CDA39
:1059A00081ED011A13EE901A814216DA13EE101AE5
:1059B000814212DA9FED930A12EE900A82ED010AFB
:1059C00050450ADAC3ED019A01E006E009E012EE63
:1059D000100A9549884200DA2670BDEC0C8BBDE8B0
:1059E000F09F082001F00CFD0028F6D00520207063
:1059F00086484570F1E79FED8E0A844880ED020AE3
:105A0000A0E0C3ED019A12EE100A874B9842E4DA47
:105A10009FED880A82ED010A34EE800AB0EEC00ADA
:105A200010EE100A5045D8DA9FED830A2EF00600DA
:105A300081ED010A764975EEC00A40F00800487011
:105A4000022189F80110F0EEE00A10EE901A744875
:105A50008142C2DA35EE000AB0EEC00A10EE101A2A
:105A60008142BADA032025632070B6E7DFED730ABE
:105A7000C0ED060A74EE600A6948F0EEE00A10EE26
:105A8000903A8342A9DA10EE103A8342A5DADFEDAC
:105A90006C0AC2ED010A9FED6B0A022281ED010A38
:105AA00035EEC01A89F80120B0EEC11A11EE101AB5
:105AB000814292DA35EE000AB0EEC00A10EE101AFA
:105AC000814205E05DE1C1E061E03DE018E00CE00D
:105AD00083DA34EEA00AB0EEC00A10EE100A504588
